{
  "contractName": "Wuziqi",
  "abi": [
    {
      "inputs": [],
      "stateMutability": "nonpayable",
      "type": "constructor"
    },
    {
      "inputs": [
        {
          "internalType": "address",
          "name": "",
          "type": "address"
        }
      ],
      "name": "balances",
      "outputs": [
        {
          "internalType": "uint256",
          "name": "",
          "type": "uint256"
        }
      ],
      "stateMutability": "view",
      "type": "function",
      "constant": true
    },
    {
      "inputs": [],
      "name": "owner",
      "outputs": [
        {
          "internalType": "address",
          "name": "",
          "type": "address"
        }
      ],
      "stateMutability": "view",
      "type": "function",
      "constant": true
    },
    {
      "inputs": [
        {
          "internalType": "address",
          "name": "to",
          "type": "address"
        },
        {
          "internalType": "uint256",
          "name": "amount",
          "type": "uint256"
        }
      ],
      "name": "transfer",
      "outputs": [],
      "stateMutability": "nonpayable",
      "type": "function"
    },
    {
      "inputs": [],
      "name": "deposit",
      "outputs": [],
      "stateMutability": "payable",
      "type": "function",
      "payable": true
    },
    {
      "inputs": [
        {
          "internalType": "uint256",
          "name": "amount",
          "type": "uint256"
        }
      ],
      "name": "withdraw",
      "outputs": [],
      "stateMutability": "nonpayable",
      "type": "function"
    }
  ],
  "bytecode": "0x608060405234801561001057600080fd5b50336000806101000a81548173ffffffffffffffffffffffffffffffffffffffff021916908373ffffffffffffffffffffffffffffffffffffffff16021790555061050c806100606000396000f3fe60806040526004361061004a5760003560e01c806327e235e31461004f5780632e1a7d4d146100b45780638da5cb5b146100ef578063a9059cbb14610146578063d0e30db0146101a1575b600080fd5b34801561005b57600080fd5b5061009e6004803603602081101561007257600080fd5b81019080803573ffffffffffffffffffffffffffffffffffffffff1690602001909291905050506101ab565b6040518082815260200191505060405180910390f35b3480156100c057600080fd5b506100ed600480360360208110156100d757600080fd5b81019080803590602001909291905050506101c3565b005b3480156100fb57600080fd5b5061010461030f565b604051808273ffffffffffffffffffffffffffffffffffffffff1673ffffffffffffffffffffffffffffffffffffffff16815260200191505060405180910390f35b34801561015257600080fd5b5061019f6004803603604081101561016957600080fd5b81019080803573ffffffffffffffffffffffffffffffffffffffff16906020019092919080359060200190929190505050610334565b005b6101a9610487565b005b60016020528060005260406000206000915090505481565b80600160003373ffffffffffffffffffffffffffffffffffffffff1673ffffffffffffffffffffffffffffffffffffffff168152602001908152602001600020541015610278576040517f08c379a000000000000000000000000000000000000000000000000000000000815260040180806020018281038252601d8152602001807f496e737566666963656e742066756e647320746f20776974686472617700000081525060200191505060405180910390fd5b80600160003373ffffffffffffffffffffffffffffffffffffffff1673ffffffffffffffffffffffffffffffffffffffff168152602001908152602001600020600082825403925050819055503373ffffffffffffffffffffffffffffffffffffffff166108fc829081150290604051600060405180830381858888f1935050505015801561030b573d6000803e3d6000fd5b5050565b6000809054906101000a900473ffffffffffffffffffffffffffffffffffffffff1681565b80600160003373ffffffffffffffffffffffffffffffffffffffff1673ffffffffffffffffffffffffffffffffffffffff1681526020019081526020016000205410156103e9576040517f08c379a000000000000000000000000000000000000000000000000000000000815260040180806020018281038252601e8152602001807f496e73756666696369656e742066756e647320746f207472616e73666572000081525060200191505060405180910390fd5b80600160003373ffffffffffffffffffffffffffffffffffffffff1673ffffffffffffffffffffffffffffffffffffffff1681526020019081526020016000206000828254039250508190555080600160008473ffffffffffffffffffffffffffffffffffffffff1673ffffffffffffffffffffffffffffffffffffffff168152602001908152602001600020600082825401925050819055505050565b34600160003373ffffffffffffffffffffffffffffffffffffffff1673ffffffffffffffffffffffffffffffffffffffff1681526020019081526020016000206000828254019250508190555056fea2646970667358221220fafacc0c742ef92c9c09d48c4223b73994d90a6351cb0745a6aae5f0cc8e967b64736f6c63430006020033",
  "source": "pragma solidity ^0.6.2;\n\ncontract Wuziqi {\n  address public owner;\n\n  mapping (address => uint) public balances;\n\n  constructor() public {\n    owner = msg.sender;\n  }\n\n  function transfer(address to, uint amount) public {\n    require(balances[msg.sender] >= amount, \"Insufficient funds to transfer\");\n    balances[msg.sender] -= amount;\n    balances[to] += amount;\n\n  }\n\n  function deposit() public payable {\n    balances[msg.sender] += msg.value;\n  }\n\n  function withdraw(uint amount) public {\n    require(balances[msg.sender] >= amount, \"Insufficent funds to withdraw\");\n    balances[msg.sender] -= amount;\n    msg.sender.transfer(amount);\n  }\n}",
  "sourcePath": "/Users/arthur/Codes/wuziqi/contracts/Wuziqi.sol",
  "compiler": {
    "name": "solc",
    "version": "0.6.2+commit.bacdbe57.Emscripten.clang"
  },
  "schemaVersion": "3.3.4",
  "updatedAt": "2021-04-19T20:28:27.715Z",
  "networkType": "ethereum",
  "devdoc": {
    "methods": {}
  },
  "userdoc": {
    "methods": {}
  }
}